:100000000C9434000C9451000C9451000C94510049
:100010000C9451000C9451000C9451000C9451001C
:100020000C9451000C9451000C9451000C9451000C
:100030000C9451000C9451000C9451000C945100FC
:100040000C9451000C9451000C9451000C945100EC
:100050000C9451000C9451000C9451000C945100DC
:100060000C9451000C94510011241FBECFEFD8E026
:10007000DEBFCDBF11E0A0E0B1E0E2EFF1E002C0F1
:1000800005900D92AA31B107D9F711E0AAE1B1E0CC
:1000900001C01D92AA31B107E1F70E949F000C94A4
:1000A000F7000C94000085B94498459A80ED97E0DC
:1000B0000197F1F7459808950F931F9388E30E94E5
:1000C000530000ED17E0C8010197F1F781E00E94AD
:1000D0005300C8010197F1F782E00E945300C80164
:1000E0000197F1F786E00E945300C8010197F1F7EC
:1000F00080E80E945300C8010197F1F71F910F910A
:10010000089585B9449A459A80ED97E00197F1F7F3
:10011000459808950F931F93CF93DF93EC0100E66A
:100120001AEE05C00E948100C8010197F1F789917C
:100130008823C1F7DF91CF911F910F9108951F93ED
:100140008FEF84B987B98AB90E945C0080E49CE98A
:100150000197F1F70E94C6008CE00E94530080E0F6
:1001600091E00E948A0080EC0E9453008CE00E9483
:1001700053008BE091E00E94E6000E94DF00182F00
:100180000E94D700812F0E948100F7CF1092C500F6
:100190008CE08093C400E0ECF0E08081826080839A
:1001A00088E18093C10086E08093C2000895982F73
:1001B0008091C00085FFFCCF9093C6000895809188
:1001C000C00087FFFCCF8091C6000895AC0120E0FD
:1001D00007C08091C00085FFFCCFE093C6002F5F71
:1001E000FA01E20FF11DE081EE2399F70895F894EA
:0201F000FFCF3F
:1001F200696E636F6D696E673A20006C697374652E
:0A0202006E696E672E2E2E0D0A00A5
:00000001FF
