:100000000C9434000C9451000C9451000C94510049
:100010000C9451000C9451000C9451000C9451001C
:100020000C9451000C9451000C9451000C9451000C
:100030000C9451000C9451000C9451000C945100FC
:100040000C9451000C9451000C9451000C945100EC
:100050000C9451000C9451000C9451000C945100DC
:100060000C9451000C94510011241FBECFEFD8E026
:10007000DEBFCDBF11E0A0E0B1E0E6EAF1E002C0F2
:1000800005900D92A232B107D9F711E0A2E2B1E0DA
:1000900001C01D92A432B107E1F70E94B4000C9494
:1000A000D1000C94000085B94498459A80ED97E002
:1000B0000197F1F7459808950F931F9388E30E94E5
:1000C000530000ED17E0C8010197F1F781E00E94AD
:1000D0005300C8010197F1F782E00E945300C80164
:1000E0000197F1F786E00E945300C8010197F1F7EC
:1000F00080E80E945300C8010197F1F71F910F910A
:10010000089585B9449A459A80ED97E00197F1F7F3
:100110004598089580912201909123010196909332
:10012000230180932201089720F01092230110925E
:1001300022018091220188B908950F931F93CF93D4
:10014000DF93EC0100E61AEE07C00E948100C801AF
:100150000197F1F70E948A0089918823B1F7DF9116
:10016000CF911F910F9108958FEF84B987B98AB904
:100170000E945C0080E49CE90197F1F78CE00E940A
:10018000530080E091E00E949D0080EC0E945300AB
:100190008CE00E94530081E191E00E949D0081E08B
:0601A000EECFF894FFCF42
:1001A6002D3E204A756A75202042756275203C2DC9
:1001B600002D2D2D2D436F6C6F7266756C2D2D2DB8
:0201C6002D000A
:00000001FF
