:100000000C9434000C9451000C9451000C94510049
:100010000C9451000C9451000C9451000C9451001C
:100020000C9451000C9451000C9451000C9451000C
:100030000C9451000C9451000C9451000C945100FC
:100040000C9451000C9451000C9451000C945100EC
:100050000C9451000C9451000C9451000C945100DC
:100060000C9451000C94510011241FBECFEFD8E026
:10007000DEBFCDBF11E0A0E0B1E0E4EDF1E002C0F1
:1000800005900D92A635B107D9F711E0A6E5B1E0CC
:1000900001C01D92A635B107E1F70E94B0000C9493
:1000A000E8000C94000085B94498459A80ED97E0EB
:1000B0000197F1F7459808950F931F9388E30E94E5
:1000C000530000ED17E0C8010197F1F781E00E94AD
:1000D0005300C8010197F1F782E00E945300C80164
:1000E0000197F1F786E00E945300C8010197F1F7EC
:1000F00080E80E945300C8010197F1F71F910F910A
:10010000089585B9449A459A80ED97E00197F1F7F3
:1001100045980895CF93DF93EC0102C00E948100BF
:1001200089918823D9F7DF91CF910895FC0140E0B0
:1001300050E0A2E090E40DC08A2F8A95F1F72F5F7E
:100140003F4F2E173F07C0F38BB189278BB94E0F56
:100150005F1F4617570718F420E030E0F2CF0895EC
:100160000F931F938FEF84B987B98BEF8AB95A9A8F
:100170000E945C0080E49CE90197F1F78CE00E940A
:10018000530080E091E00E948A0080EC0E945300BE
:100190008CE00E94530008E210E04A9B02C010E08D
:1001A00013C0112329F40F5F093209F400E011E0B4
:1001B000E02FF0E0EE0FFF1FEC5FFE4F808191819A
:1001C00060E476E00E9496008EE00E945300E5CF46
:0401D000F894FFCFD1
:1001D4003E20200036013601360186013601040135
:1001E4000902860109026C02D0019E01B601D00108
:1001F400090236010401E8002401040136018601E4
:100204005B019E01860109026C02D0019E01B601C8
:10021400D001090236010401E80024010401360179
:0602240086015B019E0152
:00000001FF
