:100000000C9434000C9451000C9451000C94510049
:100010000C9451000C9451000C9451000C9451001C
:100020000C9451000C9451000C9451000C9451000C
:100030000C9451000C9451000C9451000C945100FC
:100040000C9451000C9451000C9451000C945100EC
:100050000C9451000C9451000C9451000C945100DC
:100060000C9451000C94510011241FBECFEFD8E026
:10007000DEBFCDBF11E0A0E0B1E0E4EBF1E002C0F3
:1000800005900D92AA30B107D9F711E0AAE0B1E0CE
:1000900001C01D92AC30B107E1F70E94A9000C9499
:1000A000D8000C94000085B94498459A80ED97E0FB
:1000B0000197F1F7459808950F931F9388E30E94E5
:1000C000530000ED17E0C8010197F1F781E00E94AD
:1000D0005300C8010197F1F782E00E945300C80164
:1000E0000197F1F786E00E945300C8010197F1F7EC
:1000F00080E80E945300C8010197F1F71F910F910A
:10010000089585B9449A459A80ED97E00197F1F7F3
:1001100045980895CF93DF93EC0102C00E948100BF
:1001200089918823D9F7DF91CF91089580910A01B1
:1001300090910B01019690930B0180930A0108970F
:1001400020F010920B0110920A0180910A0188B9E7
:1001500008951F938FEF84B987B98BEF8AB95A9AA4
:100160000E945C0080E49CE90197F1F78CE00E941A
:10017000530080E091E00E948A0080EC0E945300CE
:100180008CE00E9453004A990AC0112379F484E05C
:1001900091E00E948A000E94960011E007C011239E
:1001A00029F087E091E00E948A0010E08EE0E9CF1C
:0401B000F894FFCFF1
:0A01B4003E202000502000522000E1
:00000001FF
