:100000000C9434000C9451000C9451000C94510049
:100010000C9451000C9451000C9451000C9451001C
:100020000C9451000C9451000C9451000C9451000C
:100030000C9451000C9451000C9451000C945100FC
:100040000C9451000C9451000C9451000C945100EC
:100050000C9451000C9451000C9451000C945100DC
:100060000C9451000C94510011241FBECFEFD8E026
:10007000DEBFCDBF11E0A0E0B1E0E4EDF1E002C0F1
:1000800005900D92AA30B107D9F711E0AAE0B1E0CE
:1000900001C01D92AC30B107E1F70E94B7000C948B
:1000A000E8000C9400004A9B02C080E0089580EDB7
:1000B00097E00197F1F789B18695869580958170D3
:1000C000089585B94498459A80ED97E00197F1F736
:1000D000459808950F931F9388E30E94610000EDF7
:1000E00017E0C8010197F1F781E00E946100C801A3
:1000F0000197F1F782E00E946100C8010197F1F7D2
:1001000086E00E946100C8010197F1F780E80E9433
:100110006100C8010197F1F71F910F91089585B90A
:10012000449A459A80ED97E00197F1F74598089534
:10013000CF93DF93EC0102C00E948F008991882346
:10014000D9F7DF91CF91089580910A0190910B0129
:10015000019690930B0180930A01089720F010926A
:100160000B0110920A0180910A0188B908951F932A
:100170008FEF84B987B98BEF8AB95A9A0E946A00C7
:1001800080E49CE90197F1F78CE00E94610080E037
:1001900091E00E94980080EC0E9461008CE00E9437
:1001A00061000E945300882351F0112379F484E008
:1001B00091E00E9498000E94A40011E007C0112362
:1001C00029F087E091E00E94980010E08EE0E7CFF0
:0401D000F894FFCFD1
:0A01D4003E202000502000522000C1
:00000001FF
