:100000000C9434000C9451000C9451000C94510049
:100010000C9451000C9451000C9451000C9451001C
:100020000C9451000C9451000C9451000C9451000C
:100030000C9451000C9451000C9451000C945100FC
:100040000C9451000C9451000C9451000C945100EC
:100050000C9451000C9451000C9451000C945100DC
:100060000C9451000C94510011241FBECFEFD8E026
:10007000DEBFCDBF11E0A0E0B1E0ECEAF1E002C0EC
:1000800005900D92A430B107D9F711E0A4E0B1E0DA
:1000900001C01D92A630B107E1F70E94B2000C9496
:1000A000D4000C94000085B94498459A80ED97E0FF
:1000B0000197F1F7459808950F931F9388E30E94E5
:1000C000530000ED17E0C8010197F1F781E00E94AD
:1000D0005300C8010197F1F782E00E945300C80164
:1000E0000197F1F786E00E945300C8010197F1F7EC
:1000F00080E80E945300C8010197F1F71F910F910A
:10010000089585B9449A459A80ED97E00197F1F7F3
:10011000459808950F931F93CF93DF93EC0100E66A
:100120001AEE05C00E948100C8010197F1F789917C
:100130008823C1F7DF91CF911F910F91089580918E
:1001400004019091050101969093050180930401AB
:10015000089720F01092050110920401809104018B
:1001600088B908958FEF84B987B98BEF8AB95A9A05
:100170000E945C0080E49CE90197F1F78CE00E940A
:10018000530080E091E00E948A0080EC0E945300BE
:100190008CE00E9453004A9905C080E20E948100D1
:0C01A0000E949F008EE0F5CFF894FFCF86
:0401AC003E202000D1
:00000001FF
