:100000000C9434000C9451000C9451000C94510049
:100010000C9451000C9451000C9451000C9451001C
:100020000C9451000C9451000C9451000C9451000C
:100030000C9451000C9451000C9451000C945100FC
:100040000C9451000C9451000C9451000C945100EC
:100050000C9451000C9451000C9451000C945100DC
:100060000C9451000C94510011241FBECFEFD8E026
:10007000DEBFCDBF11E0A0E0B1E0EEE8F2E002C0EB
:1000800005900D92A836B107D9F711E0A8E6B1E0C6
:1000900001C01D92A836B107E1F70E94B9000C9487
:1000A00045010C94000085B94498459A80ED97E08D
:1000B0000197F1F7459808950F931F9388E30E94E5
:1000C000530000ED17E0C8010197F1F781E00E94AD
:1000D0005300C8010197F1F782E00E945300C80164
:1000E0000197F1F786E00E945300C8010197F1F7EC
:1000F00080E80E945300C8010197F1F71F910F910A
:10010000089585B9449A459A80ED97E00197F1F7F3
:10011000459808950F931F93CF93DF93EC0100E66A
:100120001AEE05C00E948100C8010197F1F789917C
:100130008823C1F7DF91CF911F910F910895FC01A2
:1001400040E050E0A2E090E40DC08A2F8A95F1F7DC
:100150002F5F3F4F2E173F07C0F38BB189278BB915
:100160004E0F5F1F4617570718F420E030E0F2CF1C
:1001700008950F931F93CF93DF938FEF84B987B9BF
:100180008AB90E94140180E091E00E9434010E942B
:100190005C0080E49CE90197F1F70E9414018CE077
:1001A0000E9453008CE191E00E948A0080EC0E9442
:1001B00053008CE00E94530083E291E00E943401DE
:1001C000C0E0D8E702E0CE01EC010E942D01182F1B
:1001D0008EE40E942501812F0E948100A0E0B0E002
:1001E000FD01EA5AFE4F8081181751F4AA0FBB1F78
:1001F000AE5CBE4F8D919C91BE010E949F00E5CFE9
:100200001196A231B10561F71B3519F4C0E0D8E7AA
:10021000DCCF80E090EF1D35B9F2CE01202F2A957A
:10022000F1F70197D9F7CFCF1092C5008CE08093FA
:10023000C400E0ECF0E080818260808388E18093FC
:10024000C10086E08093C2000895982F8091C0007D
:1002500085FFFCCF9093C60008958091C00087FF72
:10026000FCCF8091C6000895AC0120E007C08091CA
:10027000C00085FFFCCFE093C6002F5FFA01E20FBC
:0E028000F11DE081EE2399F70895F894FFCF69
:10028E002D2D2D2D2D2053657269616C204F7267B7
:10029E00616E202D2D2D2D2D2D0D0A00504C415906
:1002AE003A20006C697374656E696E672E2E2E0D82
:1002BE000A001304D803A1036D033B030D03E102EF
:1002CE00B80291026C02490228020902EC01D00127
:1002DE00B6019E01860161777365646674677968FD
:0802EE006A696B6F6C703B271D
:00000001FF
